:100000000C9463000C948B000C948B000C948B006C
:100010000C948B000C948B000C948B000C94A30319
:100020000C948B000C948B000C948B000C948B0024
:100030000C948B000C948B000C948B000C948B0014
:100040000C9457040C948B000C9425040C94FF031F
:100050000C948B000C948B000C948B000C948B00F4
:100060000C948B000C948B000000000024002700EF
:100070002A0000000008000201000003040700003D
:1000800000000000000000000000230026002900FE
:10009000010204081020408001020408102001021F
:1000A0000408102000000000250028002B00040494
:1000B0000404040404040202020202020303030310
:1000C000030302005E0711241FBECFEFD8E0DEBF9E
:1000D000CDBF11E0A0E0B1E0E0E4F4E102C00590A2
:1000E0000D92A638B107D9F722E0A6E8B1E001C029
:1000F0001D92AD33B207E1F710E0C3E6D0E004C0D3
:100100002197FE010E94180AC236D107C9F70E9442
:10011000E6040C941E0A0C940000AF92BF92CF929A
:10012000DF92EF92FF920F931F93CF93DF936C01B7
:100130007B018B01040F151FEB015E01AE18BF0898
:10014000C017D10759F06991D601ED91FC9101904A
:10015000F081E02DC6010995892B79F7C501DF9162
:10016000CF911F910F91FF90EF90DF90CF90BF90B4
:10017000AF900895FC01538D448D252F30E0842FDE
:1001800090E0821B930B541710F0CF9608950197BF
:100190000895FC01918D828D981761F0A28DAE0FAC
:1001A000BF2FB11D5D968C91928D9F5F9F73928F33
:1001B00090E008958FEF9FEF0895FC01918D828D5F
:1001C000981731F0828DE80FF11D858D90E008952C
:1001D0008FEF9FEF0895FC01918D228D892F90E084
:1001E000805C9F4F821B91098F739927089580EA45
:1001F00091E00E94EB0021E0892B09F420E0822F9E
:10020000089580E090E0892B29F00E94F700811189
:100210000C9400000895FC01A48DA80FB92FB11D06
:10022000A35ABF4F2C91848D90E001968F7399272C
:10023000848FA689B7892C93A089B1898C9183700A
:1002400080648C93938D848D981306C00288F38903
:10025000E02D80818F7D80830895EF92FF920F9330
:100260001F93CF93DF93EC0181E0888F9B8D8C8D62
:1002700098131AC0E889F989808185FF15C09FB756
:10028000F894EE89FF896083E889F9898081837019
:10029000806480839FBF81E090E0DF91CF911F91C8
:1002A0000F91FF90EF900895F62E0B8D10E00F5FE9
:1002B0001F4F0F731127E02E8C8D8E110CC00FB6BF
:1002C00007FCFACFE889F989808185FFF5CFCE0157
:1002D0000E940B01F1CFEB8DEC0FFD2FF11DE35AC6
:1002E000FF4FF0829FB7F8940B8FEA89FB898081DA
:1002F0008062CFCFCF93DF93EC01888D8823B9F054
:10030000AA89BB89E889F9898C9185FD03C0808120
:1003100086FD0DC00FB607FCF7CF8C9185FFF2CF9D
:10032000808185FFEDCFCE010E940B01E9CFDF91E7
:10033000CF91089590E0FC01EE58FF4F2491FC010D
:10034000E057FF4F3491FC01E255FF4FE491EE235B
:10035000C9F0222339F0233001F1A8F4213019F13A
:10036000223029F1F0E0EE0FFF1FEC55FF4FA59171
:10037000B4918FB7F894EC91611126C030953E236B
:100380003C938FBF08952730A9F02830C9F024305E
:1003900049F7809180008F7D03C0809180008F7726
:1003A00080938000DFCF84B58F7784BDDBCF84B5A9
:1003B0008F7DFBCF8091B0008F778093B000D2CF3C
:1003C0008091B0008F7DF9CF3E2BDACF9091000164
:1003D00089130BC0E2ECF0E0E4919FEF90930001F1
:1003E000E13049F028F0E23061F060E00C949A01CD
:1003F00010926E00FACF90916F009D7F90936F00E6
:10040000F4CF909170009D7F9093700091E0909355
:10041000B0009091B100987F94609093B1001092D9
:10042000B300E3CFCF93DF9390E0FC01E057FF4FA1
:10043000249182559F4FFC0184918823D1F090E054
:10044000880F991FFC01E859FF4FA591B491FC0159
:10045000EC55FF4FC591D49161110EC09FB7F89430
:100460008C91E22FE0958E238C932881E223E88300
:100470009FBFDF91CF9108958FB7F894EC91E22B55
:10048000EC938FBFF6CF3FB7F89480918B0190919A
:100490008C01A0918D01B0918E0126B5A89B05C05D
:1004A0002F3F19F00196A11DB11D3FBFBA2FA92FF3
:1004B000982F8827BC01CD01620F711D811D911DF0
:1004C00042E0660F771F881F991F4A95D1F708955C
:1004D000FC0101900020E9F73197AF01481B590B4F
:1004E000BC0180EA91E00C948D008F929F92AF92B4
:1004F000BF920F931F93CF93DF93CDB7DEB7A19732
:100500000FB6F894DEBF0FBECDBF19A2423008F47B
:100510004AE08E010F5D1F4F842E912CB12CA12C2F
:10052000A50194010E94E209E62FB901CA01EA304F
:10053000F4F4E05DD801EE938D01232B242B252BC1
:1005400079F790E080E0109719F0CD010E946802E1
:10055000A1960FB6F894DEBF0FBECDBFDF91CF914D
:100560001F910F91BF90AF909F908F900895E95C7D
:10057000E1CFCF93DF930E946802EC0183E291E028
:100580000E9468028C0F9D1FDF91CF9108954F92BA
:100590005F926F927F928F929F92AF92BF92CF9213
:1005A000DF92EF92FF920F931F93CF936B017C0129
:1005B000742EAC019B010E94C909882399F086E240
:1005C00091E0CF911F910F91FF90EF90DF90CF902E
:1005D000BF90AF909F908F907F906F905F904F9063
:1005E0000C94680246015701E894B7F82FEF3FEFEB
:1005F0004FE75FE7C501B4010E94C90981110DC031
:100600002FEF3FEF4FE75FE7C501B4010E94F80706
:1006100018161CF48AE291E0D4CF2FEF3FEF4FE79A
:100620005FE4C701B6010E94570918161CF48EE258
:1006300091E0C7CF2FEF3FEF4FE75FECC701B60167
:100640000E94F80787FDF3CF20E030E0A901C70141
:10065000B6010E94F80710E000E087FF0AC06DE2D3
:1006600080EA91E00E942D018C01F7FAF094F7F8EE
:10067000F094C0E060E070E080E09FE37C1641F021
:1006800020E030E040E251E40E94FD07CF5FF6CF6A
:10069000A70196010E948C072B013C010E9476085D
:1006A0004B015C014AE00E9475027C01E00EF11EE4
:1006B000CC23C1F1C501B4010E94A5089B01AC0186
:1006C000C301B2010E948B074B015C016EE280EA1C
:1006D00091E00E942D01E80EF91EC15018F120E0B2
:1006E00030E040E251E4C501B4010E945C092B01F5
:1006F0003C010E9476084B01B12CA12C4AE0C501B7
:10070000B4010E947502E80EF91EC501B4010E94F1
:10071000A5089B01AC01C301B2010E948B074B01EC
:100720005C01DBCFC701CF911F910F91FF90EF903C
:10073000DF90CF90BF90AF909F908F907F906F9001
:100740005F904F9008951F920F920FB60F92112451
:100750002F933F934F935F936F937F938F939F93C9
:10076000AF93BF93EF93FF93809194019091950184
:10077000A0919601B0919701892B8A2B8B2BD1F1F7
:1007800090918F01E0919001F091910180818927F2
:1007900080838091940190919501A0919601B091F0
:1007A0009701181619061A061B069CF480919401ED
:1007B00090919501A0919601B09197010197A1099F
:1007C000B1098093940190939501A0939601B09301
:1007D0009701FF91EF91BF91AF919F918F917F9181
:1007E0006F915F914F913F912F910F900FBE0F909E
:1007F0001F901895809100010E94E601EACF1F9298
:100800000F920FB60F9211242F933F934F935F9344
:100810006F937F938F939F93AF93BF93EF93FF93C8
:1008200080EA91E00E940B01FF91EF91BF91AF919F
:100830009F918F917F916F915F914F913F912F91F8
:100840000F900FBE0F901F9018951F920F920FB62A
:100850000F9211242F938F939F93EF93FF93E09127
:10086000B001F091B1018081E091B601F091B70142
:1008700082FD1BC090818091B9018F5F8F732091A1
:10088000BA01821741F0E091B901F0E0E056FE4F65
:10089000958F8093B901FF91EF919F918F912F9147
:1008A0000F900FBE0F901F9018958081F4CF1F926C
:1008B0000F920FB60F9211242F933F938F939F9314
:1008C000AF93BF938091870190918801A091890196
:1008D000B0918A013091860123E0230F2D3758F51E
:1008E0000196A11DB11D20938601809387019093ED
:1008F0008801A0938901B0938A0180918B01909126
:100900008C01A0918D01B0918E010196A11DB11DA8
:1009100080938B0190938C01A0938D01B0938E01F5
:10092000BF91AF919F918F913F912F910F900FBEEB
:100930000F901F90189526E8230F0296A11DB11D58
:10094000D2CFCF92DF92EF92FF920F931F93E82FB7
:10095000F92F05C0015011092109310961F1908178
:1009600096239417B9F305C00150110921093109E3
:1009700011F1908196239413F7CFC12CD12CE12C47
:10098000F12C0AC08FEFC81AD80AE80AF80A0C1529
:100990001D052E053F0579F080818623841791F38C
:1009A0006C2D7D2D8E2D9F2D1F910F91FF90EF901F
:1009B000DF90CF90089560E070E080E090E01F91BC
:1009C0000F91FF90EF90DF90CF900895CF93DF933A
:1009D00000D000D000D0CDB7DEB7789484B5826067
:1009E00084BD84B5816084BD85B5826085BD85B5D3
:1009F000816085BD80916E00816080936E00109251
:100A000081008091810082608093810080918100CB
:100A1000816080938100809180008160809380005C
:100A20008091B10084608093B1008091B0008160BA
:100A30008093B00080917A00846080937A008091E6
:100A40007A00826080937A0080917A00816080933E
:100A50007A0080917A00806880937A001092C100B9
:100A6000E091B001F091B10182E08083E091AC01AE
:100A7000F091AD011082E091AE01F091AF018FECE9
:100A800080831092B801E091B401F091B50186E045
:100A90008083E091B201F091B30180818061808315
:100AA000E091B201F091B301808188608083E09190
:100AB000B201F091B301808180688083E091B2013E
:100AC000F091B30180818F7D808361E08AE00E9494
:100AD000120260E08BE00E94120261E083E10E945A
:100AE000120223E131E03A832983E981FA8180818E
:100AF0003296FA83E98361E00E94120229813A81E9
:100B00002352314091F7E3EA2E2EE0E03E2E4424BA
:100B10004A94542C320160E08AE00E949A0183E0FA
:100B200090E00197F1F761E08AE00E949A0183E288
:100B300090E00197F1F760E08AE00E949A01EBE90A
:100B4000F0E06491E9EBF0E08491E82FF0E0EE0F43
:100B5000FF1FEA57FF4F8591949100E412E42FE0C4
:100B600030E0462F0E94A1046115710581059105B1
:100B700029F06F5F7F4F8F4F9F4F9F700E94A50896
:100B800020E030E040E05FE30E945C0928E23EE7BD
:100B90004CE05DE30E945C096B017C01AC019B01B0
:100BA00060E070E08AEF93E40E948B074B015C01E8
:100BB00020E030E04AEF53E40E94FD0720E030E0FF
:100BC00048EC52E40E945C090E946F0869837A83B2
:100BD0008B839C8329813A813E832D8382E391E03C
:100BE0000E94680242E0C701B6010E94C70282E487
:100BF00091E00E94680242E0C501B4010E94C70270
:100C000085E591E00E94680289819A814C01990FE3
:100C1000AA08BB084AE0C501B401B7FE0DC06DE2E9
:100C200080EA91E00E942D0166277727CB016819A1
:100C300079098A099B094AE00E94750287E691E0DA
:100C40000E94B902ED81FE81EB34F1050CF430C154
:100C500080910001833131F5E2ECF0E0149117FD51
:100C6000C3C061E083E10E941202112309F48CC029
:100C7000123009F09DC08091B100887F836080931D
:100C8000B10089EF8093B300409294015092950196
:100C900060929601709297018091700082608093BB
:100CA0007000A2C08F3F09F09FC083E180930001D4
:100CB000E2ECF0E014911F3F09F496C0113021F1ED
:100CC00050F0123009F43EC017FD8EC061E083E1A0
:100CD0000E941202CDCF14BC15BC84B5826084BDC5
:100CE00085B5816085BDE1ECF0E08491E82FF0E00E
:100CF000EE0FFF1FEC55FF4F85919491F101849108
:100D00008093930110E0ADCF10928000109281008B
:100D10008091810088608093810080918100816052
:100D200080938100E1ECF0E08491E82FF0E0EE0F99
:100D3000FF1FEC55FF4F85919491F10184918093B1
:100D400092018FCF1092B0001092B1008091B0004C
:100D500082608093B0008091B10081608093B10087
:100D6000E1ECF0E08491E82FF0E0EE0FFF1FEC558E
:100D7000FF4F859194919093910180939001F1019F
:100D8000849180938F016DCF85B5887F836085BD09
:100D90008CE787BD40929C0150929D0160929E011C
:100DA00070929F0180916E00826080936E001CC0E3
:100DB000113009F075C080918100887F8160809337
:100DC00081002FE33FE13093890020938800409217
:100DD00098015092990160929A0170929B018091C2
:100DE0006F00826080936F0089E691E00E94B902F3
:100DF00089819A8123E0880F991F2A95E1F763E69C
:100E000070E00E94CE096B0183E191E09A838983AF
:100E1000F12CE12CE981FA8180813296FA83E98311
:100E200061E0EC14FD040CF060E00E949A01FFEF19
:100E3000EF1AFF0A28E0E216F10461F70E9443026C
:100E40004B015C0188EEC82E83E0D82EE12CF12CFA
:100E50000E944302681979098A099B09683E734018
:100E600081059105A8F331E0C31AD108E108F10822
:100E700088EE880E83E0981EA11CB11CC114D10419
:100E8000E104F10429F720E030E0232B09F443CEFC
:100E90000E94F700882309F43ECE0E9400003BCE5A
:100EA000123021F01111A0CF8FE373CF8FE3EACE80
:100EB00083E10E94E60180E891E098CFE0EAF1E06A
:100EC0001382128288EE93E0A0E0B0E084839583E1
:100ED000A683B78385E091E09183808385EC90E0E1
:100EE0009587848784EC90E09787868780EC90E0F4
:100EF000918B808B81EC90E0938B828B82EC90E0E5
:100F0000958B848B86EC90E0978B868B118E128E5E
:100F1000138E148E08955058BB27AA270E94A3074A
:100F20000C941D090E940F0938F00E94160920F048
:100F300039F49F3F19F426F40C940C090EF4E09553
:100F4000E7FB0C940609E92F0E942E0958F3BA1703
:100F5000620773078407950720F079F4A6F50C94CF
:100F600050090EF4E0950B2EBA2FA02D0B01B901FC
:100F700090010C01CA01A0011124FF27591B99F00F
:100F8000593F50F4503E68F11A16F040A22F232F1B
:100F9000342F4427585FF3CF469537952795A7956B
:100FA000F0405395C9F77EF41F16BA0B620B730B12
:100FB000840BBAF09150A1F0FF0FBB1F661F771F83
:100FC000881FC2F70EC0BA0F621F731F841F48F438
:100FD000879577956795B795F7959E3F08F0B0CFC1
:100FE0009395880F08F09927EE0F979587950895A8
:100FF0000E94E20808F481E008950E9411080C9410
:101000001D090E94160958F00E940F0940F029F4AA
:101010005F3F29F00C94060951110C9451090C946E
:101020000C090E942E0968F39923B1F3552391F31B
:10103000951B550BBB27AA2762177307840738F047
:101040009F5F5F4F220F331F441FAA1FA9F335D0A4
:101050000E2E3AF0E0E832D091505040E695001C58
:10106000CAF72BD0FE2F29D0660F771F881FBB1F12
:10107000261737074807AB07B0E809F0BB0B802DF0
:10108000BF01FF2793585F4F3AF09E3F510578F01C
:101090000C9406090C9451095F3FE4F3983ED4F395
:1010A000869577956795B795F7959F5FC9F7880FF0
:1010B000911D9695879597F90895E1E0660F771F42
:1010C000881FBB1F621773078407BA0720F0621BD3
:1010D000730B840BBA0BEE1F88F7E09508950E94FE
:1010E00076086894B1110C94510908950E9436094C
:1010F00088F09F5798F0B92F9927B751B0F0E1F0D9
:10110000660F771F881F991F1AF0BA95C9F714C088
:10111000B13091F00E945009B1E008950C9450094B
:10112000672F782F8827B85F39F0B93FCCF38695C1
:1011300077956795B395D9F73EF49095809570951E
:1011400061957F4F8F4F9F4F0895E89409C097FB9B
:101150003EF490958095709561957F4F8F4F9F4F8E
:101160009923A9F0F92F96E9BB279395F6958795D2
:1011700077956795B795F111F8CFFAF4BB0F11F495
:1011800060FF1BC06F5F7F4F8F4F9F4F16C088233C
:1011900011F096E911C0772321F09EE8872F762F72
:1011A00005C0662371F096E8862F70E060E02AF0B3
:1011B0009A95660F771F881FDAF7880F969587959F
:1011C00097F90895990F0008550FAA0BE0E8FEEF74
:1011D00016161706E807F907C0F012161306E407FB
:1011E000F50798F0621B730B840B950B39F40A26F4
:1011F00061F0232B242B252B21F408950A2609F4D2
:10120000A140A6958FEF811D811D089597F99F67D5
:1012100080E870E060E008959FEF80EC089500247E
:101220000A941616170618060906089500240A944B
:1012300012161306140605060895092E0394000CD1
:1012400011F4882352F0BB0F40F4BF2B11F460FF60
:1012500004C06F5F7F4F8F4F9F4F089557FD905889
:10126000440F551F59F05F3F71F04795880F97FB6A
:10127000991F61F09F3F79F0879508951216130624
:101280001406551FF2CF4695F1DF08C01616170653
:101290001806991FF1CF8695710561050894089588
:1012A000E894BB2766277727CB0197F908950E941A
:1012B000E20808F48FEF08950E946F090C941D094D
:1012C0000E940F0938F00E94160920F0952311F0B2
:1012D0000C9406090C940C0911240C9451090E94D9
:1012E0002E0970F3959FC1F3950F50E0551F629F33
:1012F000F001729FBB27F00DB11D639FAA27F00D6F
:10130000B11DAA1F649F6627B00DA11D661F829F95
:101310002227B00DA11D621F739FB00DA11D621F7A
:10132000839FA00D611D221F749F3327A00D611D97
:10133000231F849F600D211D822F762F6A2F112479
:101340009F5750409AF0F1F088234AF0EE0FFF1FAC
:10135000BB1F661F771F881F91505040A9F79E3F03
:10136000510580F00C9406090C9451095F3FE4F399
:10137000983ED4F3869577956795B795F795E79559
:101380009F5FC1F7FE2B880F911D9695879597F962
:1013900008950E94E208880B990B089597FB072E89
:1013A00016F4009407D077FD09D00E94040A07FCC8
:1013B00005D03EF4909581959F4F08957095619565
:1013C0007F4F0895A1E21A2EAA1BBB1BFD010DC081
:1013D000AA1FBB1FEE1FFF1FA217B307E407F507E5
:1013E00020F0A21BB30BE40BF50B661F771F881FC1
:1013F000991F1A9469F760957095809590959B0157
:10140000AC01BD01CF010895AA1BBB1B51E107C070
:10141000AA1FBB1FA617B70710F0A61BB70B881F84
:10142000991F5A95A9F780959095BC01CD01089513
:10143000EE0FFF1F0590F491E02D0994F894FFCF73
:10144000FF000000002D018D00BA007A01EB00C9F9
:1014500000DD000900080007000600050004000385
:101460000002000D0A006E616E00696E66006F7604
:10147000660053656E736F72204865696768743AD9
:10148000200020636D2C205761746572204C6576B6
:10149000656C3A200020636D2C2050657263656E88
:1014A000746167653A2000250044616E67657221AA
:1014B00020466C6F6F64205761726E696E67210001
:0614C000536166650000A7
:00000001FF
